{
  "contractName": "AdvancedStorage",
  "abi": [
    {
      "inputs": [
        {
          "internalType": "uint256",
          "name": "",
          "type": "uint256"
        }
      ],
      "name": "names",
      "outputs": [
        {
          "internalType": "string",
          "name": "",
          "type": "string"
        }
      ],
      "stateMutability": "view",
      "type": "function",
      "constant": true
    },
    {
      "inputs": [
        {
          "internalType": "uint256",
          "name": "position",
          "type": "uint256"
        }
      ],
      "name": "get",
      "outputs": [
        {
          "internalType": "string",
          "name": "",
          "type": "string"
        }
      ],
      "stateMutability": "view",
      "type": "function",
      "constant": true
    },
    {
      "inputs": [],
      "name": "getAll",
      "outputs": [
        {
          "internalType": "string[]",
          "name": "",
          "type": "string[]"
        }
      ],
      "stateMutability": "view",
      "type": "function",
      "constant": true
    },
    {
      "inputs": [],
      "name": "getLength",
      "outputs": [
        {
          "internalType": "uint256",
          "name": "",
          "type": "uint256"
        }
      ],
      "stateMutability": "view",
      "type": "function",
      "constant": true
    },
    {
      "inputs": [
        {
          "internalType": "string",
          "name": "name",
          "type": "string"
        }
      ],
      "name": "addName",
      "outputs": [],
      "stateMutability": "nonpayable",
      "type": "function"
    },
    {
      "inputs": [],
      "name": "removeLast",
      "outputs": [],
      "stateMutability": "nonpayable",
      "type": "function"
    }
  ],
  "bytecode": "0x608060405234801561001057600080fd5b506109ba806100206000396000f3fe608060405234801561001057600080fd5b50600436106100625760003560e01c806311456b47146100675780634622ab031461008357806353ed5143146100b35780639507d39a146100d1578063be1c766b14610101578063d092e1861461011f575b600080fd5b610081600480360381019061007c9190610618565b610129565b005b61009d60048036038101906100989190610697565b610168565b6040516100aa919061074c565b60405180910390f35b6100bb610214565b6040516100c8919061087a565b60405180910390f35b6100eb60048036038101906100e69190610697565b6102ed565b6040516100f8919061074c565b60405180910390f35b61010961039d565b60405161011691906108ab565b60405180910390f35b6101276103a9565b005b6000819080600181540180825580915050600190039060005260206000200160009091909190915090805190602001906101649291906103db565b5050565b6000818154811061017857600080fd5b906000526020600020016000915090508054610193906108f5565b80601f01602080910402602001604051908101604052809291908181526020018280546101bf906108f5565b801561020c5780601f106101e15761010080835404028352916020019161020c565b820191906000526020600020905b8154815290600101906020018083116101ef57829003601f168201915b505050505081565b60606000805480602002602001604051908101604052809291908181526020016000905b828210156102e4578382906000526020600020018054610257906108f5565b80601f0160208091040260200160405190810160405280929190818152602001828054610283906108f5565b80156102d05780601f106102a5576101008083540402835291602001916102d0565b820191906000526020600020905b8154815290600101906020018083116102b357829003601f168201915b505050505081526020019060010190610238565b50505050905090565b60606000828154811061030357610302610926565b5b906000526020600020018054610318906108f5565b80601f0160208091040260200160405190810160405280929190818152602001828054610344906108f5565b80156103915780601f1061036657610100808354040283529160200191610391565b820191906000526020600020905b81548152906001019060200180831161037457829003601f168201915b50505050509050919050565b60008080549050905090565b60008054806103bb576103ba610955565b5b6001900381819060005260206000200160006103d79190610461565b9055565b8280546103e7906108f5565b90600052602060002090601f0160209004810192826104095760008555610450565b82601f1061042257805160ff1916838001178555610450565b82800160010185558215610450579182015b8281111561044f578251825591602001919060010190610434565b5b50905061045d91906104a1565b5090565b50805461046d906108f5565b6000825580601f1061047f575061049e565b601f01602090049060005260206000209081019061049d91906104a1565b5b50565b5b808211156104ba5760008160009055506001016104a2565b5090565b6000604051905090565b600080fd5b600080fd5b600080fd5b600080fd5b6000601f19601f8301169050919050565b7f4e487b7100000000000000000000000000000000000000000000000000000000600052604160045260246000fd5b610525826104dc565b810181811067ffffffffffffffff82111715610544576105436104ed565b5b80604052505050565b60006105576104be565b9050610563828261051c565b919050565b600067ffffffffffffffff821115610583576105826104ed565b5b61058c826104dc565b9050602081019050919050565b82818337600083830152505050565b60006105bb6105b684610568565b61054d565b9050828152602081018484840111156105d7576105d66104d7565b5b6105e2848285610599565b509392505050565b600082601f8301126105ff576105fe6104d2565b5b813561060f8482602086016105a8565b91505092915050565b60006020828403121561062e5761062d6104c8565b5b600082013567ffffffffffffffff81111561064c5761064b6104cd565b5b610658848285016105ea565b91505092915050565b6000819050919050565b61067481610661565b811461067f57600080fd5b50565b6000813590506106918161066b565b92915050565b6000602082840312156106ad576106ac6104c8565b5b60006106bb84828501610682565b91505092915050565b600081519050919050565b600082825260208201905092915050565b60005b838110156106fe5780820151818401526020810190506106e3565b8381111561070d576000848401525b50505050565b600061071e826106c4565b61072881856106cf565b93506107388185602086016106e0565b610741816104dc565b840191505092915050565b600060208201905081810360008301526107668184610713565b905092915050565b600081519050919050565b600082825260208201905092915050565b6000819050602082019050919050565b600082825260208201905092915050565b60006107b6826106c4565b6107c0818561079a565b93506107d08185602086016106e0565b6107d9816104dc565b840191505092915050565b60006107f083836107ab565b905092915050565b6000602082019050919050565b60006108108261076e565b61081a8185610779565b93508360208202850161082c8561078a565b8060005b85811015610868578484038952815161084985826107e4565b9450610854836107f8565b925060208a01995050600181019050610830565b50829750879550505050505092915050565b600060208201905081810360008301526108948184610805565b905092915050565b6108a581610661565b82525050565b60006020820190506108c0600083018461089c565b92915050565b7f4e487b7100000000000000000000000000000000000000000000000000000000600052602260045260246000fd5b6000600282049050600182168061090d57607f821691505b6020821081036109205761091f6108c6565b5b50919050565b7f4e487b7100000000000000000000000000000000000000000000000000000000600052603260045260246000fd5b7f4e487b7100000000000000000000000000000000000000000000000000000000600052603160045260246000fdfea26469706673582212203380c543ba6f90543fd97f4fb6ad03478e844ce0e79eb7eb8ad032f3d776e54c64736f6c634300080d0033",
  "immutableReferences": {},
  "source": "//SPDX-License-Identifier: MIT\r\npragma solidity ^0.8.13;\r\n\r\n\r\ncontract AdvancedStorage{\r\n\r\n    string[] public names;\r\n\r\n    function get(uint256 position) public view returns (string memory) {\r\n        return names[position];\r\n    }\r\n\r\n    function getAll() public view returns (string[] memory) {\r\n        return names;\r\n    }\r\n\r\n    function getLength() public view returns (uint256){\r\n        return names.length;\r\n    }\r\n\r\n    function addName(string memory name) public {\r\n        names.push(name);\r\n    }\r\n\r\n    function removeLast() public{\r\n        names.pop();\r\n    }\r\n}",
  "sourcePath": "C:\\Users\\ITAUTEC\\Desktop\\REPOS\\EATTHEBLOCKS\\PROJETOS\\4-advanced-storage\\contracts\\AdvancedStorage.sol",
  "compiler": {
    "name": "solc",
    "version": "0.8.13+commit.abaa5c0e.Emscripten.clang"
  },
  "schemaVersion": "3.4.10",
  "updatedAt": "2022-12-06T09:14:14.112Z",
  "networkType": "ethereum",
  "devdoc": {
    "kind": "dev",
    "methods": {},
    "version": 1
  },
  "userdoc": {
    "kind": "user",
    "methods": {},
    "version": 1
  }
}